{
  "_format": "hh-sol-artifact-1",
  "contractName": "Staking",
  "sourceName": "contracts/Staking.sol",
  "abi": [
    {
      "inputs": [
        {
          "internalType": "uint256",
          "name": "amount",
          "type": "uint256"
        },
        {
          "internalType": "address",
          "name": "_from",
          "type": "address"
        }
      ],
      "name": "stake",
      "outputs": [],
      "stateMutability": "nonpayable",
      "type": "function"
    },
    {
      "inputs": [
        {
          "internalType": "address",
          "name": "",
          "type": "address"
        }
      ],
      "name": "stakes",
      "outputs": [
        {
          "internalType": "uint256",
          "name": "",
          "type": "uint256"
        }
      ],
      "stateMutability": "view",
      "type": "function"
    },
    {
      "inputs": [
        {
          "internalType": "uint256",
          "name": "amount",
          "type": "uint256"
        },
        {
          "internalType": "address",
          "name": "_to",
          "type": "address"
        }
      ],
      "name": "unstake",
      "outputs": [],
      "stateMutability": "nonpayable",
      "type": "function"
    },
    {
      "inputs": [
        {
          "internalType": "address",
          "name": "_account",
          "type": "address"
        }
      ],
      "name": "viewStake",
      "outputs": [
        {
          "internalType": "uint256",
          "name": "",
          "type": "uint256"
        }
      ],
      "stateMutability": "view",
      "type": "function"
    }
  ],
  "bytecode": "0x608060405234801561001057600080fd5b506105a5806100206000396000f3fe608060405234801561001057600080fd5b506004361061004c5760003560e01c806316934fc4146100515780637acb7757146100815780638381e1821461009d578063a0ac2655146100b9575b600080fd5b61006b60048036038101906100669190610322565b6100e9565b6040516100789190610368565b60405180910390f35b61009b600480360381019061009691906103af565b610101565b005b6100b760048036038101906100b291906103af565b61019d565b005b6100d360048036038101906100ce9190610322565b610277565b6040516100e09190610368565b60405180910390f35b60006020528060005260406000206000915090505481565b60008211610144576040517f08c379a000000000000000000000000000000000000000000000000000000000815260040161013b9061044c565b60405180910390fd5b816000808373ffffffffffffffffffffffffffffffffffffffff1673ffffffffffffffffffffffffffffffffffffffff1681526020019081526020016000206000828254610192919061049b565b925050819055505050565b6000803373ffffffffffffffffffffffffffffffffffffffff1673ffffffffffffffffffffffffffffffffffffffff1681526020019081526020016000205482111561021e576040517f08c379a00000000000000000000000000000000000000000000000000000000081526004016102159061051b565b60405180910390fd5b816000808373ffffffffffffffffffffffffffffffffffffffff1673ffffffffffffffffffffffffffffffffffffffff168152602001908152602001600020600082825461026c919061053b565b925050819055505050565b60008060008373ffffffffffffffffffffffffffffffffffffffff1673ffffffffffffffffffffffffffffffffffffffff168152602001908152602001600020549050919050565b600080fd5b600073ffffffffffffffffffffffffffffffffffffffff82169050919050565b60006102ef826102c4565b9050919050565b6102ff816102e4565b811461030a57600080fd5b50565b60008135905061031c816102f6565b92915050565b600060208284031215610338576103376102bf565b5b60006103468482850161030d565b91505092915050565b6000819050919050565b6103628161034f565b82525050565b600060208201905061037d6000830184610359565b92915050565b61038c8161034f565b811461039757600080fd5b50565b6000813590506103a981610383565b92915050565b600080604083850312156103c6576103c56102bf565b5b60006103d48582860161039a565b92505060206103e58582860161030d565b9150509250929050565b600082825260208201905092915050565b7f496e76616c6964207374616b6520616d6f756e74000000000000000000000000600082015250565b60006104366014836103ef565b915061044182610400565b602082019050919050565b6000602082019050818103600083015261046581610429565b9050919050565b7f4e487b7100000000000000000000000000000000000000000000000000000000600052601160045260246000fd5b60006104a68261034f565b91506104b18361034f565b92508282019050808211156104c9576104c861046c565b5b92915050565b7f496e73756666696369656e74207374616b656420616d6f756e74000000000000600082015250565b6000610505601a836103ef565b9150610510826104cf565b602082019050919050565b60006020820190508181036000830152610534816104f8565b9050919050565b60006105468261034f565b91506105518361034f565b92508282039050818111156105695761056861046c565b5b9291505056fea264697066735822122034d6a9cba11ef69ff98797df582a682b256403458be802d684abd7629dc2517464736f6c63430008180033",
  "linkReferences": {},
  "deployedLinkReferences": {}
}