{
  "_format": "hh-sol-artifact-1",
  "contractName": "Transfer",
  "sourceName": "contracts/Transfer.sol",
  "abi": [
    {
      "inputs": [
        {
          "internalType": "address",
          "name": "",
          "type": "address"
        }
      ],
      "name": "balances",
      "outputs": [
        {
          "internalType": "uint256",
          "name": "",
          "type": "uint256"
        }
      ],
      "stateMutability": "view",
      "type": "function"
    },
    {
      "inputs": [
        {
          "internalType": "address",
          "name": "_to",
          "type": "address"
        },
        {
          "internalType": "uint256",
          "name": "_amount",
          "type": "uint256"
        }
      ],
      "name": "mint",
      "outputs": [],
      "stateMutability": "nonpayable",
      "type": "function"
    },
    {
      "inputs": [
        {
          "internalType": "address",
          "name": "_from",
          "type": "address"
        },
        {
          "internalType": "address",
          "name": "to",
          "type": "address"
        },
        {
          "internalType": "uint256",
          "name": "amount",
          "type": "uint256"
        }
      ],
      "name": "transferFrom",
      "outputs": [],
      "stateMutability": "nonpayable",
      "type": "function"
    },
    {
      "inputs": [
        {
          "internalType": "address",
          "name": "_account",
          "type": "address"
        }
      ],
      "name": "viewBalance",
      "outputs": [
        {
          "internalType": "uint256",
          "name": "",
          "type": "uint256"
        }
      ],
      "stateMutability": "view",
      "type": "function"
    }
  ],
  "bytecode": "0x608060405234801561001057600080fd5b5061064e806100206000396000f3fe608060405234801561001057600080fd5b506004361061004c5760003560e01c806323b872dd1461005157806327e235e31461006d57806340c10f191461009d578063c1a13d1a146100b9575b600080fd5b61006b600480360381019061006691906103ae565b6100e9565b005b61008760048036038101906100829190610401565b610219565b604051610094919061043d565b60405180910390f35b6100b760048036038101906100b29190610458565b610231565b005b6100d360048036038101906100ce9190610401565b6102cd565b6040516100e0919061043d565b60405180910390f35b6000808473ffffffffffffffffffffffffffffffffffffffff1673ffffffffffffffffffffffffffffffffffffffff1681526020019081526020016000205481111561016a576040517f08c379a0000000000000000000000000000000000000000000000000000000008152600401610161906104f5565b60405180910390fd5b806000803373ffffffffffffffffffffffffffffffffffffffff1673ffffffffffffffffffffffffffffffffffffffff16815260200190815260200160002060008282546101b89190610544565b92505081905550806000808473ffffffffffffffffffffffffffffffffffffffff1673ffffffffffffffffffffffffffffffffffffffff168152602001908152602001600020600082825461020d9190610578565b92505081905550505050565b60006020528060005260406000206000915090505481565b60008111610274576040517f08c379a000000000000000000000000000000000000000000000000000000000815260040161026b906105f8565b60405180910390fd5b806000808473ffffffffffffffffffffffffffffffffffffffff1673ffffffffffffffffffffffffffffffffffffffff16815260200190815260200160002060008282546102c29190610578565b925050819055505050565b60008060008373ffffffffffffffffffffffffffffffffffffffff1673ffffffffffffffffffffffffffffffffffffffff168152602001908152602001600020549050919050565b600080fd5b600073ffffffffffffffffffffffffffffffffffffffff82169050919050565b60006103458261031a565b9050919050565b6103558161033a565b811461036057600080fd5b50565b6000813590506103728161034c565b92915050565b6000819050919050565b61038b81610378565b811461039657600080fd5b50565b6000813590506103a881610382565b92915050565b6000806000606084860312156103c7576103c6610315565b5b60006103d586828701610363565b93505060206103e686828701610363565b92505060406103f786828701610399565b9150509250925092565b60006020828403121561041757610416610315565b5b600061042584828501610363565b91505092915050565b61043781610378565b82525050565b6000602082019050610452600083018461042e565b92915050565b6000806040838503121561046f5761046e610315565b5b600061047d85828601610363565b925050602061048e85828601610399565b9150509250929050565b600082825260208201905092915050565b7f496e73756666696369656e742062616c616e6365000000000000000000000000600082015250565b60006104df601483610498565b91506104ea826104a9565b602082019050919050565b6000602082019050818103600083015261050e816104d2565b9050919050565b7f4e487b7100000000000000000000000000000000000000000000000000000000600052601160045260246000fd5b600061054f82610378565b915061055a83610378565b925082820390508181111561057257610571610515565b5b92915050565b600061058382610378565b915061058e83610378565b92508282019050808211156105a6576105a5610515565b5b92915050565b7f496e76616c696420416d6f756e74000000000000000000000000000000000000600082015250565b60006105e2600e83610498565b91506105ed826105ac565b602082019050919050565b60006020820190508181036000830152610611816105d5565b905091905056fea26469706673582212208165858367082ecdf49cbb9cfe23eb4d60b78037208718397cd3618a6dec5d3e64736f6c63430008180033",
  "linkReferences": {},
  "deployedLinkReferences": {}
}