{
  "_format": "hh-sol-artifact-1",
  "contractName": "TransparentProxy",
  "sourceName": "contracts/TransparentProxy.sol",
  "abi": [
    {
      "anonymous": false,
      "inputs": [
        {
          "indexed": true,
          "internalType": "bytes4",
          "name": "functionId",
          "type": "bytes4"
        },
        {
          "indexed": true,
          "internalType": "address",
          "name": "implementationContract",
          "type": "address"
        }
      ],
      "name": "ImplementationUpdated",
      "type": "event"
    },
    {
      "stateMutability": "nonpayable",
      "type": "fallback"
    },
    {
      "inputs": [
        {
          "internalType": "address",
          "name": "",
          "type": "address"
        }
      ],
      "name": "balances",
      "outputs": [
        {
          "internalType": "uint256",
          "name": "",
          "type": "uint256"
        }
      ],
      "stateMutability": "view",
      "type": "function"
    },
    {
      "inputs": [
        {
          "internalType": "uint256",
          "name": "",
          "type": "uint256"
        },
        {
          "internalType": "uint256",
          "name": "",
          "type": "uint256"
        }
      ],
      "name": "campaignAndCandidatesMap",
      "outputs": [
        {
          "internalType": "uint256",
          "name": "",
          "type": "uint256"
        }
      ],
      "stateMutability": "view",
      "type": "function"
    },
    {
      "inputs": [
        {
          "internalType": "uint256",
          "name": "",
          "type": "uint256"
        },
        {
          "internalType": "address",
          "name": "",
          "type": "address"
        }
      ],
      "name": "campaignUserMap",
      "outputs": [
        {
          "internalType": "bool",
          "name": "",
          "type": "bool"
        }
      ],
      "stateMutability": "view",
      "type": "function"
    },
    {
      "inputs": [
        {
          "internalType": "uint256",
          "name": "_campaignId",
          "type": "uint256"
        },
        {
          "internalType": "uint256",
          "name": "_candidateId",
          "type": "uint256"
        }
      ],
      "name": "getVotes",
      "outputs": [
        {
          "internalType": "uint256",
          "name": "",
          "type": "uint256"
        }
      ],
      "stateMutability": "view",
      "type": "function"
    },
    {
      "inputs": [
        {
          "internalType": "bytes4",
          "name": "",
          "type": "bytes4"
        }
      ],
      "name": "idToContractAddressMap",
      "outputs": [
        {
          "internalType": "address",
          "name": "",
          "type": "address"
        }
      ],
      "stateMutability": "view",
      "type": "function"
    },
    {
      "inputs": [],
      "name": "implementation",
      "outputs": [
        {
          "internalType": "address",
          "name": "",
          "type": "address"
        }
      ],
      "stateMutability": "view",
      "type": "function"
    },
    {
      "inputs": [
        {
          "internalType": "address",
          "name": "",
          "type": "address"
        }
      ],
      "name": "stakes",
      "outputs": [
        {
          "internalType": "uint256",
          "name": "",
          "type": "uint256"
        }
      ],
      "stateMutability": "view",
      "type": "function"
    },
    {
      "inputs": [
        {
          "internalType": "bytes4",
          "name": "functionId",
          "type": "bytes4"
        },
        {
          "internalType": "address",
          "name": "newImplementation",
          "type": "address"
        }
      ],
      "name": "updateImplementationContract",
      "outputs": [],
      "stateMutability": "nonpayable",
      "type": "function"
    },
    {
      "inputs": [
        {
          "internalType": "address",
          "name": "_account",
          "type": "address"
        }
      ],
      "name": "viewBalance",
      "outputs": [
        {
          "internalType": "uint256",
          "name": "",
          "type": "uint256"
        }
      ],
      "stateMutability": "view",
      "type": "function"
    },
    {
      "inputs": [
        {
          "internalType": "address",
          "name": "_account",
          "type": "address"
        }
      ],
      "name": "viewStake",
      "outputs": [
        {
          "internalType": "uint256",
          "name": "",
          "type": "uint256"
        }
      ],
      "stateMutability": "view",
      "type": "function"
    },
    {
      "inputs": [
        {
          "internalType": "uint256",
          "name": "_campaignId",
          "type": "uint256"
        }
      ],
      "name": "winner",
      "outputs": [
        {
          "internalType": "uint256",
          "name": "",
          "type": "uint256"
        }
      ],
      "stateMutability": "view",
      "type": "function"
    }
  ],
  "bytecode": "0x608060405234801561001057600080fd5b50610a98806100206000396000f3fe608060405234801561001057600080fd5b50600436106100ad5760003560e01c806391f366331161007157806391f36633146102fe578063a0ac26551461032e578063adc91ced1461035e578063c1a13d1a1461038e578063d0b9f265146103be578063e36459c0146103ee576100ae565b806316934fc414610220578063189b87b1146102505780631cbeae5e1461028057806327e235e3146102b05780635c60da1b146102e0576100ae565b5b60006005600080357fffffffff00000000000000000000000000000000000000000000000000000000167bffffffffffffffffffffffffffffffffffffffffffffffffffffffff19167bffffffffffffffffffffffffffffffffffffffffffffffffffffffff1916815260200190815260200160002060009054906101000a900473ffffffffffffffffffffffffffffffffffffffff169050600073ffffffffffffffffffffffffffffffffffffffff168173ffffffffffffffffffffffffffffffffffffffff16036101b6576040517f08c379a00000000000000000000000000000000000000000000000000000000081526004016101ad90610780565b60405180910390fd5b80600260006101000a81548173ffffffffffffffffffffffffffffffffffffffff021916908373ffffffffffffffffffffffffffffffffffffffff160217905550604051366000823760008036836002545af43d806000843e816000811461021c578184f35b8184fd5b61023a60048036038101906102359190610803565b61040a565b6040516102479190610849565b60405180910390f35b61026a60048036038101906102659190610890565b610422565b60405161027791906108eb565b60405180910390f35b61029a60048036038101906102959190610906565b610451565b6040516102a79190610849565b60405180910390f35b6102ca60048036038101906102c59190610803565b6104d6565b6040516102d79190610849565b60405180910390f35b6102e86104ee565b6040516102f59190610942565b60405180910390f35b6103186004803603810190610313919061095d565b610514565b6040516103259190610849565b60405180910390f35b61034860048036038101906103439190610803565b610542565b6040516103559190610849565b60405180910390f35b6103786004803603810190610373919061095d565b61058b565b6040516103859190610849565b60405180910390f35b6103a860048036038101906103a39190610803565b6105b0565b6040516103b59190610849565b60405180910390f35b6103d860048036038101906103d391906109f5565b6105f9565b6040516103e59190610942565b60405180910390f35b61040860048036038101906104039190610a22565b61062c565b005b60046020528060005260406000206000915090505481565b60016020528160005260406000206020528060005260406000206000915091509054906101000a900460ff1681565b60008060009050600080600090505b60038110156104cb578260008087815260200190815260200160002060008381526020019081526020016000205411156104be5760008086815260200190815260200160002060008281526020019081526020016000205492508091505b8080600101915050610460565b508092505050919050565b60036020528060005260406000206000915090505481565b600260009054906101000a900473ffffffffffffffffffffffffffffffffffffffff1681565b6000806000848152602001908152602001600020600083815260200190815260200160002054905092915050565b6000600460008373ffffffffffffffffffffffffffffffffffffffff1673ffffffffffffffffffffffffffffffffffffffff168152602001908152602001600020549050919050565b6000602052816000526040600020602052806000526040600020600091509150505481565b6000600360008373ffffffffffffffffffffffffffffffffffffffff1673ffffffffffffffffffffffffffffffffffffffff168152602001908152602001600020549050919050565b60056020528060005260406000206000915054906101000a900473ffffffffffffffffffffffffffffffffffffffff1681565b8060056000847bffffffffffffffffffffffffffffffffffffffffffffffffffffffff19167bffffffffffffffffffffffffffffffffffffffffffffffffffffffff1916815260200190815260200160002060006101000a81548173ffffffffffffffffffffffffffffffffffffffff021916908373ffffffffffffffffffffffffffffffffffffffff1602179055508073ffffffffffffffffffffffffffffffffffffffff16827bffffffffffffffffffffffffffffffffffffffffffffffffffffffff19167f9c8888dcf672cbf06680e05aca6b63b857ece6acb3c765464cc376fc24d3362c60405160405180910390a35050565b600082825260208201905092915050565b7f496e76616c696420696d706c656d656e746174696f6e20636f6e74726163742e600082015250565b600061076a602083610723565b915061077582610734565b602082019050919050565b600060208201905081810360008301526107998161075d565b9050919050565b600080fd5b600073ffffffffffffffffffffffffffffffffffffffff82169050919050565b60006107d0826107a5565b9050919050565b6107e0816107c5565b81146107eb57600080fd5b50565b6000813590506107fd816107d7565b92915050565b600060208284031215610819576108186107a0565b5b6000610827848285016107ee565b91505092915050565b6000819050919050565b61084381610830565b82525050565b600060208201905061085e600083018461083a565b92915050565b61086d81610830565b811461087857600080fd5b50565b60008135905061088a81610864565b92915050565b600080604083850312156108a7576108a66107a0565b5b60006108b58582860161087b565b92505060206108c6858286016107ee565b9150509250929050565b60008115159050919050565b6108e5816108d0565b82525050565b600060208201905061090060008301846108dc565b92915050565b60006020828403121561091c5761091b6107a0565b5b600061092a8482850161087b565b91505092915050565b61093c816107c5565b82525050565b60006020820190506109576000830184610933565b92915050565b60008060408385031215610974576109736107a0565b5b60006109828582860161087b565b92505060206109938582860161087b565b9150509250929050565b60007fffffffff0000000000000000000000000000000000000000000000000000000082169050919050565b6109d28161099d565b81146109dd57600080fd5b50565b6000813590506109ef816109c9565b92915050565b600060208284031215610a0b57610a0a6107a0565b5b6000610a19848285016109e0565b91505092915050565b60008060408385031215610a3957610a386107a0565b5b6000610a47858286016109e0565b9250506020610a58858286016107ee565b915050925092905056fea2646970667358221220ed7b0601b25e22d5b5ed5d79be7331c4e5fcf42e0bef7d7a1e11738e8bbc771664736f6c63430008180033",
  "linkReferences": {},
  "deployedLinkReferences": {}
}