{
  "_format": "hh-sol-artifact-1",
  "contractName": "VotingContract",
  "sourceName": "contracts/VotingContract.sol",
  "abi": [
    {
      "inputs": [
        {
          "internalType": "uint256",
          "name": "",
          "type": "uint256"
        },
        {
          "internalType": "uint256",
          "name": "",
          "type": "uint256"
        }
      ],
      "name": "campaignAndCandidatesMap",
      "outputs": [
        {
          "internalType": "uint256",
          "name": "",
          "type": "uint256"
        }
      ],
      "stateMutability": "view",
      "type": "function"
    },
    {
      "inputs": [
        {
          "internalType": "uint256",
          "name": "",
          "type": "uint256"
        },
        {
          "internalType": "address",
          "name": "",
          "type": "address"
        }
      ],
      "name": "campaignUserMap",
      "outputs": [
        {
          "internalType": "bool",
          "name": "",
          "type": "bool"
        }
      ],
      "stateMutability": "view",
      "type": "function"
    },
    {
      "inputs": [
        {
          "internalType": "uint256",
          "name": "_campaignId",
          "type": "uint256"
        },
        {
          "internalType": "uint256",
          "name": "_candidateId",
          "type": "uint256"
        }
      ],
      "name": "getVotes",
      "outputs": [
        {
          "internalType": "uint256",
          "name": "",
          "type": "uint256"
        }
      ],
      "stateMutability": "view",
      "type": "function"
    },
    {
      "inputs": [
        {
          "internalType": "uint256",
          "name": "_campaignId",
          "type": "uint256"
        },
        {
          "internalType": "uint256",
          "name": "_candidateId",
          "type": "uint256"
        },
        {
          "internalType": "address",
          "name": "_user",
          "type": "address"
        }
      ],
      "name": "vote",
      "outputs": [],
      "stateMutability": "nonpayable",
      "type": "function"
    }
  ],
  "bytecode": "0x608060405234801561001057600080fd5b506105ad806100206000396000f3fe608060405234801561001057600080fd5b506004361061004c5760003560e01c8063189b87b11461005157806350d915831461008157806391f366331461009d578063adc91ced146100cd575b600080fd5b61006b60048036038101906100669190610364565b6100fd565b60405161007891906103bf565b60405180910390f35b61009b600480360381019061009691906103da565b61012c565b005b6100b760048036038101906100b2919061042d565b610278565b6040516100c4919061047c565b60405180910390f35b6100e760048036038101906100e2919061042d565b6102a6565b6040516100f4919061047c565b60405180910390f35b60016020528160005260406000206020528060005260406000206000915091509054906101000a900460ff1681565b600015156001600085815260200190815260200160002060008373ffffffffffffffffffffffffffffffffffffffff1673ffffffffffffffffffffffffffffffffffffffff16815260200190815260200160002060009054906101000a900460ff161515146101d0576040517f08c379a00000000000000000000000000000000000000000000000000000000081526004016101c7906104f4565b60405180910390fd5b6001600080858152602001908152602001600020600084815260200190815260200160002060008282546102049190610543565b92505081905550600180600085815260200190815260200160002060008373ffffffffffffffffffffffffffffffffffffffff1673ffffffffffffffffffffffffffffffffffffffff16815260200190815260200160002060006101000a81548160ff021916908315150217905550505050565b6000806000848152602001908152602001600020600083815260200190815260200160002054905092915050565b6000602052816000526040600020602052806000526040600020600091509150505481565b600080fd5b6000819050919050565b6102e3816102d0565b81146102ee57600080fd5b50565b600081359050610300816102da565b92915050565b600073ffffffffffffffffffffffffffffffffffffffff82169050919050565b600061033182610306565b9050919050565b61034181610326565b811461034c57600080fd5b50565b60008135905061035e81610338565b92915050565b6000806040838503121561037b5761037a6102cb565b5b6000610389858286016102f1565b925050602061039a8582860161034f565b9150509250929050565b60008115159050919050565b6103b9816103a4565b82525050565b60006020820190506103d460008301846103b0565b92915050565b6000806000606084860312156103f3576103f26102cb565b5b6000610401868287016102f1565b9350506020610412868287016102f1565b92505060406104238682870161034f565b9150509250925092565b60008060408385031215610444576104436102cb565b5b6000610452858286016102f1565b9250506020610463858286016102f1565b9150509250929050565b610476816102d0565b82525050565b6000602082019050610491600083018461046d565b92915050565b600082825260208201905092915050565b7f416c726561647920766f74656400000000000000000000000000000000000000600082015250565b60006104de600d83610497565b91506104e9826104a8565b602082019050919050565b6000602082019050818103600083015261050d816104d1565b9050919050565b7f4e487b7100000000000000000000000000000000000000000000000000000000600052601160045260246000fd5b600061054e826102d0565b9150610559836102d0565b925082820190508082111561057157610570610514565b5b9291505056fea2646970667358221220b8a59897e35817a36d0cf24f86f295d677c2c71de76a834450d2ab8a7ade663664736f6c63430008180033",
  "linkReferences": {},
  "deployedLinkReferences": {}
}